{
  "contractName": "AIModelMarketplace",
  "abi": [
    {
      "inputs": [],
      "stateMutability": "nonpayable",
      "type": "constructor"
    },
    {
      "anonymous": false,
      "inputs": [
        {
          "indexed": false,
          "internalType": "address",
          "name": "recipient",
          "type": "address"
        },
        {
          "indexed": false,
          "internalType": "uint256",
          "name": "amount",
          "type": "uint256"
        }
      ],
      "name": "FundsWithdrawn",
      "type": "event"
    },
    {
      "anonymous": false,
      "inputs": [
        {
          "indexed": false,
          "internalType": "uint256",
          "name": "modelId",
          "type": "uint256"
        },
        {
          "indexed": false,
          "internalType": "string",
          "name": "name",
          "type": "string"
        },
        {
          "indexed": false,
          "internalType": "string",
          "name": "description",
          "type": "string"
        },
        {
          "indexed": false,
          "internalType": "uint256",
          "name": "price",
          "type": "uint256"
        },
        {
          "indexed": false,
          "internalType": "address",
          "name": "creator",
          "type": "address"
        }
      ],
      "name": "ModelListed",
      "type": "event"
    },
    {
      "anonymous": false,
      "inputs": [
        {
          "indexed": false,
          "internalType": "uint256",
          "name": "modelId",
          "type": "uint256"
        },
        {
          "indexed": false,
          "internalType": "address",
          "name": "buyer",
          "type": "address"
        },
        {
          "indexed": false,
          "internalType": "uint256",
          "name": "price",
          "type": "uint256"
        }
      ],
      "name": "ModelPurchased",
      "type": "event"
    },
    {
      "anonymous": false,
      "inputs": [
        {
          "indexed": false,
          "internalType": "uint256",
          "name": "modelId",
          "type": "uint256"
        },
        {
          "indexed": false,
          "internalType": "address",
          "name": "rater",
          "type": "address"
        },
        {
          "indexed": false,
          "internalType": "uint8",
          "name": "rating",
          "type": "uint8"
        }
      ],
      "name": "ModelRated",
      "type": "event"
    },
    {
      "inputs": [
        {
          "internalType": "uint256",
          "name": "",
          "type": "uint256"
        }
      ],
      "name": "models",
      "outputs": [
        {
          "internalType": "string",
          "name": "name",
          "type": "string"
        },
        {
          "internalType": "string",
          "name": "description",
          "type": "string"
        },
        {
          "internalType": "uint256",
          "name": "price",
          "type": "uint256"
        },
        {
          "internalType": "address",
          "name": "creator",
          "type": "address"
        },
        {
          "internalType": "uint256",
          "name": "totalRating",
          "type": "uint256"
        },
        {
          "internalType": "uint256",
          "name": "numberOfRatings",
          "type": "uint256"
        }
      ],
      "stateMutability": "view",
      "type": "function",
      "constant": true
    },
    {
      "inputs": [],
      "name": "owner",
      "outputs": [
        {
          "internalType": "address",
          "name": "",
          "type": "address"
        }
      ],
      "stateMutability": "view",
      "type": "function",
      "constant": true
    },
    {
      "inputs": [
        {
          "internalType": "uint256",
          "name": "",
          "type": "uint256"
        },
        {
          "internalType": "address",
          "name": "",
          "type": "address"
        }
      ],
      "name": "ratings",
      "outputs": [
        {
          "internalType": "uint8",
          "name": "",
          "type": "uint8"
        }
      ],
      "stateMutability": "view",
      "type": "function",
      "constant": true
    },
    {
      "inputs": [
        {
          "internalType": "string",
          "name": "name",
          "type": "string"
        },
        {
          "internalType": "string",
          "name": "description",
          "type": "string"
        },
        {
          "internalType": "uint256",
          "name": "price",
          "type": "uint256"
        }
      ],
      "name": "listModel",
      "outputs": [],
      "stateMutability": "nonpayable",
      "type": "function"
    },
    {
      "inputs": [
        {
          "internalType": "uint256",
          "name": "modelId",
          "type": "uint256"
        }
      ],
      "name": "purchaseModel",
      "outputs": [],
      "stateMutability": "payable",
      "type": "function",
      "payable": true
    },
    {
      "inputs": [
        {
          "internalType": "uint256",
          "name": "modelId",
          "type": "uint256"
        },
        {
          "internalType": "uint8",
          "name": "rating",
          "type": "uint8"
        }
      ],
      "name": "rateModel",
      "outputs": [],
      "stateMutability": "nonpayable",
      "type": "function"
    },
    {
      "inputs": [],
      "name": "withdrawFunds",
      "outputs": [],
      "stateMutability": "nonpayable",
      "type": "function"
    },
    {
      "inputs": [
        {
          "internalType": "uint256",
          "name": "modelId",
          "type": "uint256"
        }
      ],
      "name": "getModelDetails",
      "outputs": [
        {
          "internalType": "string",
          "name": "name",
          "type": "string"
        },
        {
          "internalType": "string",
          "name": "description",
          "type": "string"
        },
        {
          "internalType": "uint256",
          "name": "price",
          "type": "uint256"
        },
        {
          "internalType": "address",
          "name": "creator",
          "type": "address"
        },
        {
          "internalType": "uint256",
          "name": "averageRating",
          "type": "uint256"
        }
      ],
      "stateMutability": "view",
      "type": "function",
      "constant": true
    },
    {
      "inputs": [],
      "name": "getModelCount",
      "outputs": [
        {
          "internalType": "uint256",
          "name": "",
          "type": "uint256"
        }
      ],
      "stateMutability": "view",
      "type": "function",
      "constant": true
    }
  ],
  "bytecode": "0x608060405234801561001057600080fd5b5033600260006101000a81548173ffffffffffffffffffffffffffffffffffffffff021916908373ffffffffffffffffffffffffffffffffffffffff1602179055506119ef806100616000396000f3fe6080604052600436106100865760003560e01c80634989dbb0116100595780634989dbb0146101355780634bab0585146101605780636a030ca91461019d5780638da5cb5b146101df578063dc7468621461020a57610086565b806312ee1c0e1461008b5780631c788a9a146100b457806324600fc3146100dd57806331fc042f146100f4575b600080fd5b34801561009757600080fd5b506100b260048036038101906100ad9190610f58565b610226565b005b3480156100c057600080fd5b506100db60048036038101906100d6919061103c565b6103d5565b005b3480156100e957600080fd5b506100f26106e8565b005b34801561010057600080fd5b5061011b60048036038101906101169190610fd7565b610887565b60405161012c959493929190611394565b60405180910390f35b34801561014157600080fd5b5061014a610aab565b6040516101579190611564565b60405180910390f35b34801561016c57600080fd5b5061018760048036038101906101829190611000565b610ab7565b604051610194919061164e565b60405180910390f35b3480156101a957600080fd5b506101c460048036038101906101bf9190610fd7565b610ae6565b6040516101d6969594939291906113f5565b60405180910390f35b3480156101eb57600080fd5b506101f4610c62565b6040516102019190611350565b60405180910390f35b610224600480360381019061021f9190610fd7565b610c88565b005b60008111610269576040517f08c379a000000000000000000000000000000000000000000000000000000000815260040161026090611544565b60405180910390fd5b60006040518060c001604052808581526020018481526020018381526020013373ffffffffffffffffffffffffffffffffffffffff168152602001600081526020016000815250908060018154018082558091505060019003906000526020600020906006020160009091909190915060008201518160000190805190602001906102f5929190610e0e565b506020820151816001019080519060200190610312929190610e0e565b506040820151816002015560608201518160030160006101000a81548173ffffffffffffffffffffffffffffffffffffffff021916908373ffffffffffffffffffffffffffffffffffffffff1602179055506080820151816004015560a0820151816005015550506000600160008054905061038e919061176d565b90507f988447004164f28081936f22661fc3898dda52a0210617c848e707ce976307bb81858585336040516103c79594939291906115ed565b60405180910390a150505050565b8160006001600083815260200190815260200160002060003373ffffffffffffffffffffffffffffffffffffffff1673ffffffffffffffffffffffffffffffffffffffff16815260200190815260200160002060009054906101000a900460ff1660ff16141561047a576040517f08c379a000000000000000000000000000000000000000000000000000000000815260040161047190611524565b60405180910390fd5b60008054905083106104c1576040517f08c379a00000000000000000000000000000000000000000000000000000000081526004016104b890611464565b60405180910390fd5b60018260ff16101580156104d9575060058260ff1611155b610518576040517f08c379a000000000000000000000000000000000000000000000000000000000815260040161050f90611504565b60405180910390fd5b6000808481548110610553577f4e487b7100000000000000000000000000000000000000000000000000000000600052603260045260246000fd5b9060005260206000209060060201905060006001600086815260200190815260200160002060003373ffffffffffffffffffffffffffffffffffffffff1673ffffffffffffffffffffffffffffffffffffffff16815260200190815260200160002060009054906101000a900460ff1660ff1614610606576040517f08c379a00000000000000000000000000000000000000000000000000000000081526004016105fd906114e4565b60405180910390fd5b826001600086815260200190815260200160002060003373ffffffffffffffffffffffffffffffffffffffff1673ffffffffffffffffffffffffffffffffffffffff16815260200190815260200160002060006101000a81548160ff021916908360ff1602179055508260ff1681600401600082825461068691906116e6565b925050819055508060050160008154809291906106a29061185e565b91905055507ffaf9f3e1fdcee02b60a86f88d3d00c69853925ce50a737a2f544c5d0cb132da58433856040516106da939291906115b6565b60405180910390a150505050565b600260009054906101000a900473ffffffffffffffffffffffffffffffffffffffff1673ffffffffffffffffffffffffffffffffffffffff163373ffffffffffffffffffffffffffffffffffffffff1614610778576040517f08c379a000000000000000000000000000000000000000000000000000000000815260040161076f906114c4565b60405180910390fd5b6000479050600081116107c0576040517f08c379a00000000000000000000000000000000000000000000000000000000081526004016107b790611484565b60405180910390fd5b600260009054906101000a900473ffffffffffffffffffffffffffffffffffffffff1673ffffffffffffffffffffffffffffffffffffffff166108fc829081150290604051600060405180830381858888f19350505050158015610828573d6000803e3d6000fd5b507feaff4b37086828766ad3268786972c0cd24259d4c87a80f9d3963a3c3d999b0d600260009054906101000a900473ffffffffffffffffffffffffffffffffffffffff168260405161087c92919061136b565b60405180910390a150565b6060806000806000808054905086106108d5576040517f08c379a00000000000000000000000000000000000000000000000000000000081526004016108cc90611464565b60405180910390fd5b6000808781548110610910577f4e487b7100000000000000000000000000000000000000000000000000000000600052603260045260246000fd5b906000526020600020906006020190506000808260050154146109465781600501548260040154610941919061173c565b610949565b60005b9050816000018260010183600201548460030160009054906101000a900473ffffffffffffffffffffffffffffffffffffffff168484805461098a9061182c565b80601f01602080910402602001604051908101604052809291908181526020018280546109b69061182c565b8015610a035780601f106109d857610100808354040283529160200191610a03565b820191906000526020600020905b8154815290600101906020018083116109e657829003601f168201915b50505050509450838054610a169061182c565b80601f0160208091040260200160405190810160405280929190818152602001828054610a429061182c565b8015610a8f5780601f10610a6457610100808354040283529160200191610a8f565b820191906000526020600020905b815481529060010190602001808311610a7257829003601f168201915b5050505050935096509650965096509650505091939590929450565b60008080549050905090565b60016020528160005260406000206020528060005260406000206000915091509054906101000a900460ff1681565b60008181548110610af657600080fd5b9060005260206000209060060201600091509050806000018054610b199061182c565b80601f0160208091040260200160405190810160405280929190818152602001828054610b459061182c565b8015610b925780601f10610b6757610100808354040283529160200191610b92565b820191906000526020600020905b815481529060010190602001808311610b7557829003601f168201915b505050505090806001018054610ba79061182c565b80601f0160208091040260200160405190810160405280929190818152602001828054610bd39061182c565b8015610c205780601f10610bf557610100808354040283529160200191610c20565b820191906000526020600020905b815481529060010190602001808311610c0357829003601f168201915b5050505050908060020154908060030160009054906101000a900473ffffffffffffffffffffffffffffffffffffffff16908060040154908060050154905086565b600260009054906101000a900473ffffffffffffffffffffffffffffffffffffffff1681565b6000805490508110610ccf576040517f08c379a0000000000000000000000000000000000000000000000000000000008152600401610cc690611464565b60405180910390fd5b6000808281548110610d0a577f4e487b7100000000000000000000000000000000000000000000000000000000600052603260045260246000fd5b9060005260206000209060060201905080600201543414610d60576040517f08c379a0000000000000000000000000000000000000000000000000000000008152600401610d57906114a4565b60405180910390fd5b8060030160009054906101000a900473ffffffffffffffffffffffffffffffffffffffff1673ffffffffffffffffffffffffffffffffffffffff166108fc349081150290604051600060405180830381858888f19350505050158015610dca573d6000803e3d6000fd5b507fb5d54ea46e4c298281d5e6ccd4df1ac37f8d49fa68ba9984d1677d046025bb1182338360020154604051610e029392919061157f565b60405180910390a15050565b828054610e1a9061182c565b90600052602060002090601f016020900481019282610e3c5760008555610e83565b82601f10610e5557805160ff1916838001178555610e83565b82800160010185558215610e83579182015b82811115610e82578251825591602001919060010190610e67565b5b509050610e909190610e94565b5090565b5b80821115610ead576000816000905550600101610e95565b5090565b6000610ec4610ebf8461169a565b611669565b905082815260208101848484011115610edc57600080fd5b610ee78482856117ea565b509392505050565b600081359050610efe81611974565b92915050565b600082601f830112610f1557600080fd5b8135610f25848260208601610eb1565b91505092915050565b600081359050610f3d8161198b565b92915050565b600081359050610f52816119a2565b92915050565b600080600060608486031215610f6d57600080fd5b600084013567ffffffffffffffff811115610f8757600080fd5b610f9386828701610f04565b935050602084013567ffffffffffffffff811115610fb057600080fd5b610fbc86828701610f04565b9250506040610fcd86828701610f2e565b9150509250925092565b600060208284031215610fe957600080fd5b6000610ff784828501610f2e565b91505092915050565b6000806040838503121561101357600080fd5b600061102185828601610f2e565b925050602061103285828601610eef565b9150509250929050565b6000806040838503121561104f57600080fd5b600061105d85828601610f2e565b925050602061106e85828601610f43565b9150509250929050565b611081816117a1565b82525050565b6000611092826116ca565b61109c81856116d5565b93506110ac8185602086016117f9565b6110b581611963565b840191505092915050565b60006110cd6010836116d5565b91507f496e76616c6964206d6f64656c204944000000000000000000000000000000006000830152602082019050919050565b600061110d6014836116d5565b91507f4e6f2066756e647320746f2077697468647261770000000000000000000000006000830152602082019050919050565b600061114d6014836116d5565b91507f496e636f72726563742070726963652073656e740000000000000000000000006000830152602082019050919050565b600061118d602f836116d5565b91507f4f6e6c792074686520636f6e7472616374206f776e65722063616e207065726660008301527f6f726d207468697320616374696f6e00000000000000000000000000000000006020830152604082019050919050565b60006111f36021836116d5565b91507f596f75206861766520616c72656164792072617465642074686973206d6f646560008301527f6c000000000000000000000000000000000000000000000000000000000000006020830152604082019050919050565b6000611259601e836116d5565b91507f526174696e67206d757374206265206265747765656e203120616e64203500006000830152602082019050919050565b60006112996029836116d5565b91507f596f75206d75737420707572636861736520746865206d6f64656c206265666f60008301527f726520726174696e6700000000000000000000000000000000000000000000006020830152604082019050919050565b60006112ff601c836116d5565b91507f5072696365206d7573742062652067726561746572207468616e2030000000006000830152602082019050919050565b61133b816117d3565b82525050565b61134a816117dd565b82525050565b60006020820190506113656000830184611078565b92915050565b60006040820190506113806000830185611078565b61138d6020830184611332565b9392505050565b600060a08201905081810360008301526113ae8188611087565b905081810360208301526113c28187611087565b90506113d16040830186611332565b6113de6060830185611078565b6113eb6080830184611332565b9695505050505050565b600060c082019050818103600083015261140f8189611087565b905081810360208301526114238188611087565b90506114326040830187611332565b61143f6060830186611078565b61144c6080830185611332565b61145960a0830184611332565b979650505050505050565b6000602082019050818103600083015261147d816110c0565b9050919050565b6000602082019050818103600083015261149d81611100565b9050919050565b600060208201905081810360008301526114bd81611140565b9050919050565b600060208201905081810360008301526114dd81611180565b9050919050565b600060208201905081810360008301526114fd816111e6565b9050919050565b6000602082019050818103600083015261151d8161124c565b9050919050565b6000602082019050818103600083015261153d8161128c565b9050919050565b6000602082019050818103600083015261155d816112f2565b9050919050565b60006020820190506115796000830184611332565b92915050565b60006060820190506115946000830186611332565b6115a16020830185611078565b6115ae6040830184611332565b949350505050565b60006060820190506115cb6000830186611332565b6115d86020830185611078565b6115e56040830184611341565b949350505050565b600060a0820190506116026000830188611332565b81810360208301526116148187611087565b905081810360408301526116288186611087565b90506116376060830185611332565b6116446080830184611078565b9695505050505050565b60006020820190506116636000830184611341565b92915050565b6000604051905081810181811067ffffffffffffffff821117156116905761168f611934565b5b8060405250919050565b600067ffffffffffffffff8211156116b5576116b4611934565b5b601f19601f8301169050602081019050919050565b600081519050919050565b600082825260208201905092915050565b60006116f1826117d3565b91506116fc836117d3565b9250827fffffffffffffffffffffffffffffffffffffffffffffffffffffffffffffffff03821115611731576117306118a7565b5b828201905092915050565b6000611747826117d3565b9150611752836117d3565b925082611762576117616118d6565b5b828204905092915050565b6000611778826117d3565b9150611783836117d3565b925082821015611796576117956118a7565b5b828203905092915050565b60006117ac826117b3565b9050919050565b600073ffffffffffffffffffffffffffffffffffffffff82169050919050565b6000819050919050565b600060ff82169050919050565b82818337600083830152505050565b60005b838110156118175780820151818401526020810190506117fc565b83811115611826576000848401525b50505050565b6000600282049050600182168061184457607f821691505b6020821081141561185857611857611905565b5b50919050565b6000611869826117d3565b91507fffffffffffffffffffffffffffffffffffffffffffffffffffffffffffffffff82141561189c5761189b6118a7565b5b600182019050919050565b7f4e487b7100000000000000000000000000000000000000000000000000000000600052601160045260246000fd5b7f4e487b7100000000000000000000000000000000000000000000000000000000600052601260045260246000fd5b7f4e487b7100000000000000000000000000000000000000000000000000000000600052602260045260246000fd5b7f4e487b7100000000000000000000000000000000000000000000000000000000600052604160045260246000fd5b6000601f19601f8301169050919050565b61197d816117a1565b811461198857600080fd5b50565b611994816117d3565b811461199f57600080fd5b50565b6119ab816117dd565b81146119b657600080fd5b5056fea26469706673582212203ce6d4dcf441ee9a1d5aa5e6603ff90b3a52674bb0067dee32c460582feca31a64736f6c63430008000033",
  "immutableReferences": {},
  "source": "// SPDX-License-Identifier: MIT\r\npragma solidity ^0.8.0;\r\n\r\ncontract AIModelMarketplace {\r\n\r\n    struct Model {\r\n        string name;\r\n        string description;\r\n        uint256 price;\r\n        address creator;\r\n        uint256 totalRating;\r\n        uint256 numberOfRatings;\r\n    }\r\n\r\n    //    \r\n    Model[] public models;\r\n\r\n    //     \r\n    mapping(uint256 => mapping(address => uint8)) public ratings;\r\n\r\n    //     \r\n    event ModelListed(uint256 modelId, string name, string description, uint256 price, address creator);\r\n\r\n    //    \r\n    event ModelPurchased(uint256 modelId, address buyer, uint256 price);\r\n\r\n    //    \r\n    event ModelRated(uint256 modelId, address rater, uint8 rating);\r\n\r\n    //    \r\n    event FundsWithdrawn(address recipient, uint256 amount);\r\n\r\n    //  \r\n    address public owner;\r\n\r\n    constructor() {\r\n        owner = msg.sender;\r\n    }\r\n\r\n    //     \r\n    modifier onlyOwner() {\r\n        require(msg.sender == owner, \"Only the contract owner can perform this action\");\r\n        _;\r\n    }\r\n\r\n    //   ,    \r\n    modifier onlyPurchased(uint256 modelId) {\r\n        require(ratings[modelId][msg.sender] != 0, \"You must purchase the model before rating\");\r\n        _;\r\n    }\r\n\r\n    //     \r\n    function listModel(string memory name, string memory description, uint256 price) public {\r\n        require(price > 0, \"Price must be greater than 0\");\r\n\r\n        //   \r\n        models.push(Model({\r\n            name: name,\r\n            description: description,\r\n            price: price,\r\n            creator: msg.sender,\r\n            totalRating: 0,\r\n            numberOfRatings: 0\r\n        }));\r\n\r\n        uint256 modelId = models.length - 1; //  ID  \r\n        emit ModelListed(modelId, name, description, price, msg.sender);\r\n    }\r\n\r\n    //    \r\n    function purchaseModel(uint256 modelId) public payable {\r\n        require(modelId < models.length, \"Invalid model ID\");\r\n        Model storage model = models[modelId];\r\n        require(msg.value == model.price, \"Incorrect price sent\");\r\n\r\n        //    \r\n        payable(model.creator).transfer(msg.value);\r\n\r\n        emit ModelPurchased(modelId, msg.sender, model.price);\r\n    }\r\n\r\n    //     \r\n    function rateModel(uint256 modelId, uint8 rating) public onlyPurchased(modelId) {\r\n        require(modelId < models.length, \"Invalid model ID\");\r\n        require(rating >= 1 && rating <= 5, \"Rating must be between 1 and 5\");\r\n\r\n        Model storage model = models[modelId];\r\n\r\n        //      ,  \r\n        require(ratings[modelId][msg.sender] == 0, \"You have already rated this model\");\r\n\r\n        ratings[modelId][msg.sender] = rating;\r\n\r\n        //   \r\n        model.totalRating += rating;\r\n        model.numberOfRatings++;\r\n\r\n        emit ModelRated(modelId, msg.sender, rating);\r\n    }\r\n\r\n    //      \r\n    function withdrawFunds() public onlyOwner {\r\n        uint256 balance = address(this).balance;\r\n        require(balance > 0, \"No funds to withdraw\");\r\n\r\n        payable(owner).transfer(balance);\r\n        emit FundsWithdrawn(owner, balance);\r\n    }\r\n\r\n    //      \r\n    function getModelDetails(uint256 modelId) public view returns (string memory name, string memory description, uint256 price, address creator, uint256 averageRating) {\r\n        require(modelId < models.length, \"Invalid model ID\");\r\n\r\n        Model storage model = models[modelId];\r\n\r\n        uint256 avgRating = model.numberOfRatings == 0 ? 0 : model.totalRating / model.numberOfRatings;\r\n\r\n        return (model.name, model.description, model.price, model.creator, avgRating);\r\n    }\r\n\r\n    //     \r\n    function getModelCount() public view returns (uint256) {\r\n        return models.length;\r\n    }\r\n}",
  "sourcePath": "C:\\Users\\Dias\\Desktop\\BlockChain Assignment 2\\AIModelMarketplace\\contracts\\AIMarketplace.sol",
  "compiler": {
    "name": "solc",
    "version": "0.8.0+commit.c7dfd78e.Emscripten.clang"
  },
  "schemaVersion": "3.4.16",
  "updatedAt": "2025-01-10T17:44:50.633Z",
  "networkType": "ethereum",
  "devdoc": {
    "kind": "dev",
    "methods": {},
    "version": 1
  },
  "userdoc": {
    "kind": "user",
    "methods": {},
    "version": 1
  }
}